{
  "contractName": "Main",
  "abi": [
    {
      "constant": true,
      "inputs": [
        {
          "internalType": "address",
          "name": "",
          "type": "address"
        }
      ],
      "name": "availableBalances",
      "outputs": [
        {
          "internalType": "uint256",
          "name": "",
          "type": "uint256"
        }
      ],
      "payable": false,
      "stateMutability": "view",
      "type": "function"
    },
    {
      "constant": true,
      "inputs": [],
      "name": "balance",
      "outputs": [
        {
          "internalType": "uint256",
          "name": "",
          "type": "uint256"
        }
      ],
      "payable": false,
      "stateMutability": "view",
      "type": "function"
    },
    {
      "constant": true,
      "inputs": [
        {
          "internalType": "address",
          "name": "",
          "type": "address"
        }
      ],
      "name": "lastFlip",
      "outputs": [
        {
          "internalType": "bool",
          "name": "",
          "type": "bool"
        }
      ],
      "payable": false,
      "stateMutability": "view",
      "type": "function"
    },
    {
      "constant": false,
      "inputs": [],
      "name": "addBalance",
      "outputs": [],
      "payable": true,
      "stateMutability": "payable",
      "type": "function"
    },
    {
      "constant": false,
      "inputs": [
        {
          "internalType": "uint256",
          "name": "betType",
          "type": "uint256"
        }
      ],
      "name": "flip",
      "outputs": [
        {
          "internalType": "bool",
          "name": "",
          "type": "bool"
        }
      ],
      "payable": true,
      "stateMutability": "payable",
      "type": "function"
    },
    {
      "constant": true,
      "inputs": [
        {
          "internalType": "address",
          "name": "user",
          "type": "address"
        }
      ],
      "name": "getLastFlip",
      "outputs": [
        {
          "internalType": "bool",
          "name": "",
          "type": "bool"
        }
      ],
      "payable": false,
      "stateMutability": "view",
      "type": "function"
    },
    {
      "constant": true,
      "inputs": [],
      "name": "getContractBalance",
      "outputs": [
        {
          "internalType": "uint256",
          "name": "",
          "type": "uint256"
        }
      ],
      "payable": false,
      "stateMutability": "view",
      "type": "function"
    },
    {
      "constant": true,
      "inputs": [
        {
          "internalType": "address",
          "name": "user1",
          "type": "address"
        }
      ],
      "name": "getUserBalance",
      "outputs": [
        {
          "internalType": "uint256",
          "name": "",
          "type": "uint256"
        }
      ],
      "payable": false,
      "stateMutability": "view",
      "type": "function"
    },
    {
      "constant": false,
      "inputs": [],
      "name": "withdrawAll",
      "outputs": [
        {
          "internalType": "uint256",
          "name": "",
          "type": "uint256"
        }
      ],
      "payable": false,
      "stateMutability": "nonpayable",
      "type": "function"
    }
  ],
  "bytecode": "0x608060405234801561001057600080fd5b50610964806100206000396000f3fe6080604052600436106100865760003560e01c80636f9fb98a116100595780636f9fb98a14610208578063853828b614610233578063b163cc381461025e578063b69ef8a814610268578063dc3774b31461029357610086565b80631e6d56731461008b578063221e885d146100f4578063363351731461013a57806347734892146101a3575b600080fd5b34801561009757600080fd5b506100da600480360360208110156100ae57600080fd5b81019080803573ffffffffffffffffffffffffffffffffffffffff1690602001909291905050506102f8565b604051808215151515815260200191505060405180910390f35b6101206004803603602081101561010a57600080fd5b810190808035906020019092919050505061034e565b604051808215151515815260200191505060405180910390f35b34801561014657600080fd5b506101896004803603602081101561015d57600080fd5b81019080803573ffffffffffffffffffffffffffffffffffffffff1690602001909291905050506106ba565b604051808215151515815260200191505060405180910390f35b3480156101af57600080fd5b506101f2600480360360208110156101c657600080fd5b81019080803573ffffffffffffffffffffffffffffffffffffffff1690602001909291905050506106da565b6040518082815260200191505060405180910390f35b34801561021457600080fd5b5061021d610723565b6040518082815260200191505060405180910390f35b34801561023f57600080fd5b5061024861072c565b6040518082815260200191505060405180910390f35b610266610804565b005b34801561027457600080fd5b5061027d6108d3565b6040518082815260200191505060405180910390f35b34801561029f57600080fd5b506102e2600480360360208110156102b657600080fd5b81019080803573ffffffffffffffffffffffffffffffffffffffff1690602001909291905050506108d9565b6040518082815260200191505060405180910390f35b6000600260008373ffffffffffffffffffffffffffffffffffffffff1673ffffffffffffffffffffffffffffffffffffffff16815260200190815260200160002060009054906101000a900460ff169050919050565b6000600182148061035f5750600082145b6103d1576040517f08c379a000000000000000000000000000000000000000000000000000000000815260040180806020018281038252601b8152602001807f426574206d757374206265206865616473206f72207461696c7321000000000081525060200191505060405180910390fd5b600160003373ffffffffffffffffffffffffffffffffffffffff1673ffffffffffffffffffffffffffffffffffffffff16815260200190815260200160002054341115610469576040517f08c379a000000000000000000000000000000000000000000000000000000000815260040180806020018281038252603e8152602001806108f2603e913960400191505060405180910390fd5b60006002428161047557fe5b061480156104835750600082145b806104a4575060016002428161049557fe5b061480156104a35750600182145b5b156105b15734600160003373ffffffffffffffffffffffffffffffffffffffff1673ffffffffffffffffffffffffffffffffffffffff168152602001908152602001600020600082825401925050819055503460008082825403925050819055506001600260003373ffffffffffffffffffffffffffffffffffffffff1673ffffffffffffffffffffffffffffffffffffffff16815260200190815260200160002060006101000a81548160ff021916908315150217905550600260003373ffffffffffffffffffffffffffffffffffffffff1673ffffffffffffffffffffffffffffffffffffffff16815260200190815260200160002060009054906101000a900460ff1690506106b5565b34600160003373ffffffffffffffffffffffffffffffffffffffff1673ffffffffffffffffffffffffffffffffffffffff168152602001908152602001600020600082825403925050819055503460008082825401925050819055506000600260003373ffffffffffffffffffffffffffffffffffffffff1673ffffffffffffffffffffffffffffffffffffffff16815260200190815260200160002060006101000a81548160ff021916908315150217905550600260003373ffffffffffffffffffffffffffffffffffffffff1673ffffffffffffffffffffffffffffffffffffffff16815260200190815260200160002060009054906101000a900460ff1690505b919050565b60026020528060005260406000206000915054906101000a900460ff1681565b6000600160008373ffffffffffffffffffffffffffffffffffffffff1673ffffffffffffffffffffffffffffffffffffffff168152602001908152602001600020549050919050565b60008054905090565b600080600160003373ffffffffffffffffffffffffffffffffffffffff1673ffffffffffffffffffffffffffffffffffffffff1681526020019081526020016000205490506000600160003373ffffffffffffffffffffffffffffffffffffffff1673ffffffffffffffffffffffffffffffffffffffff168152602001908152602001600020819055503373ffffffffffffffffffffffffffffffffffffffff166108fc829081150290604051600060405180830381858888f193505050501580156107fc573d6000803e3d6000fd5b508091505090565b670de0b6b3a764000080341015610883576040517f08c379a00000000000000000000000000000000000000000000000000000000081526004018080602001828103825260148152602001807f4e6f7420656e6f756768204554482073656e742100000000000000000000000081525060200191505060405180910390fd5b34600160003373ffffffffffffffffffffffffffffffffffffffff1673ffffffffffffffffffffffffffffffffffffffff1681526020019081526020016000206000828254019250508190555050565b60005481565b6001602052806000526040600020600091509050548156fe596f752063616e206f6e6c7920626574206173206d75636820617320796f75722062616c616e63652c206465706f736974206d6f726520706c6561736521a265627a7a7231582010cdde81a30bc0ae80a488f2870ef7c4df6474ccf92796a28d4e646d8ad2645564736f6c63430005100032",
  "source": "pragma solidity 0.5.16;\r\n\r\ncontract Main{\r\n\r\nuint public balance;\r\n\r\nmapping(address => uint) public availableBalances;\r\nmapping(address => bool) public lastFlip;\r\n\r\n\r\n  modifier costs(uint cost){\r\n        require(msg.value >= cost,\"Not enough ETH sent!\");\r\n        _;\r\n    }\r\n\r\n\r\nfunction addBalance()public payable costs(1 ether){\r\n    availableBalances[msg.sender] += msg.value;\r\n}\r\n\r\n\r\nfunction flip(uint betType) public payable returns (bool) {\r\n    require(betType == 1 || betType == 0, \"Bet must be heads or tails!\"); //Heads will be 0 and Tails will be 1\r\n    require(msg.value <= availableBalances[msg.sender], \"You can only bet as much as your balance, deposit more please!\");\r\n\r\n    if((now % 2 == 0 && betType == 0) || (now % 2 == 1 && betType == 1)){\r\n        availableBalances[msg.sender] += msg.value;\r\n        balance -= msg.value;\r\n        lastFlip[msg.sender] = true;\r\n        return lastFlip[msg.sender];\r\n    }else{\r\n        availableBalances[msg.sender] -= msg.value;\r\n        balance += msg.value;\r\n        lastFlip[msg.sender] = false;\r\n        return lastFlip[msg.sender];\r\n    }\r\n}\r\n\r\nfunction getLastFlip(address user) public view returns(bool){\r\n    return lastFlip[user];\r\n}\r\n\r\nfunction getContractBalance()public view returns(uint){\r\n    return balance;\r\n}\r\n\r\nfunction getUserBalance(address user1)public view returns(uint){\r\n    return availableBalances[user1];\r\n}\r\n\r\nfunction withdrawAll() public returns(uint) {\r\n    uint transfer1 = availableBalances[msg.sender];\r\n    availableBalances[msg.sender] = 0;\r\n    msg.sender.transfer(transfer1);\r\n    return transfer1;\r\n}\r\n\r\n}\r\n",
  "sourcePath": "/workspace/CI-MS2/contracts/main.sol",
  "compiler": {
    "name": "solc",
    "version": "0.5.16+commit.9c3226ce.Emscripten.clang"
  },
  "schemaVersion": "3.4.1",
  "updatedAt": "2021-06-21T12:48:20.346Z",
  "devdoc": {
    "methods": {}
  },
  "userdoc": {
    "methods": {}
  }
}